:0300000002023FBA
:0C023F00787FE4F6D8FD75812502028668
:10041500D3EF9400EE6480948040120000007D0BC1
:0D0425007CBEDCFEDDFCEF1F70E61E80E3F8
:0104320022A7
:1003ED0011083F065B4F666D7D077F6F777C395E29
:0303FD0079710013
:10034300ED14B40800505490035875F003A4C5830A
:1003530025F0C5837302037002037402037802035A
:100363007C020380020388020390020398D2A480D4
:100373000ED2A48012D2A48016D2A4801AC2A4D210
:10038300A3D2A28016C2A4D2A3C2A2800EC2A4C2C8
:10039300A3D2A28006C2A4C2A3C2A274082FF8E605
:0D03A300F5807F017E00120415E4F5802234
:10000E007525FF7590FFC2932097147F147E001202
:10001E0004153097FD7F147E0012041575250120FE
:10002E0096147F147E001204153096FD7F147E0008
:10003E001204157525052095147F147E00120415E3
:10004E003095FD7F147E0012041575250920941439
:10005E007F147E001204153094FD7F147E0012046E
:10006E001575250D7590FFC2922097147F147E0092
:10007E001204153097FD7F147E00120415752502AB
:10008E002096147F147E001204153096FD7F147E88
:10009E00001204157525062095147F147E00120497
:1000AE00153095FD7F147E0012041575250A2094D7
:1000BE00147F147E001204153094FD7F147E0012FE
:1000CE00041575250E7590FFC2912097147F147E2E
:1000DE00001204153097FD7F147E0012041575254D
:1000EE00032096147F147E001204153096FD7F14A3
:1000FE007E001204157525072095147F147E0012BC
:10010E0004153095FD7F147E0012041575250B2005
:10011E0094147F147E001204153094FD7F147E001B
:10012E0012041575250F7590FFC2902097147F1439
:10013E007E001204153097FD7F147E001204157593
:10014E0025042096147F147E001204153096FD7F30
:10015E00147E001204157525082095147F147E0058
:10016E001204153095FD7F147E0012041575250CB2
:10017E002094147F147E001204153094FD7F147E9B
:09018E0000120415E4F525AF256B
:010197002245
:10040000011B00011900011A00011F000121000356
:040410001C3030006C
:10043300D2AFD2A9758901758C3C758AAFD28C2253
:03000B000203B03D
:1003B000C0E0C0D0C28C758C3C758AAFE51B64145C
:1003C0007022F51B0519E519B43C1B751900051AB7
:1003D000E51AB43C11751A00051FE51FB43C0775FA
:0D03E0001F008002051BD28CD0D0D0E0326F
:100198008F228D238B24C28C12000E8F20E520F431
:1001A8006022E521C39402501BE52094095015E50F
:1001B80020C39400400EE5202430FF741C2521F84C
:1001C800A6070521E520640F7045F521E52224FEE8
:1001D80060191460282402705BE51C24D075F00AAD
:1001E800A4FFE51D24D02FF51F8049E51C24D075F8
:1001F800F00AA4FFE51D24D02FF51A8037E51C244A
:10020800D075F00AA4FFE51D24D02FF5198025E547
:1002180020B40E09751C30751D30E4F521E51C2449
:10022800D0FFAD23120343E51D24D0FFAD241203F4
:07023800430201A0D28C2259
:1002CB0012043320B1257F147E0012041530B1FDCA
:1002DB007B047D037F011201987B067D057F021253
:1002EB0001987B087D077F03120198E51F75F00AC3
:1002FB0084FF7D03120343E51F75F00A84AFF07D85
:10030B0004120343E51A75F00A84FF7D05120343BB
:10031B00E51A75F00A84AFF07D06120343E51975F3
:10032B00F00A84FF7D07120343E51975F00A84AFC9
:08033B00F07D08120343808BE2
:10024B000202CBE493A3F8E493A34003F68001F2FC
:10025B0008DFF48029E493A3F85407240CC8C333B4
:10026B00C4540F4420C8834004F456800146F6DF83
:10027B00E4800B01020408102040809003EDE47E23
:10028B00019360BCA3FF543F30E509541FFEE49378
:10029B00A360010ECF54C025E060A840B8E493A33F
:1002AB00FAE493A3F8E493A3C8C582C8CAC583CA6A
:1002BB00F0A3C8C582C8CAC583CADFE9DEE780BE22
:0104140000E7
:00000001FF
